{
  "contractName": "Registration",
  "abi": [
    {
      "constant": true,
      "inputs": [],
      "name": "voterCount",
      "outputs": [
        {
          "name": "",
          "type": "uint256"
        }
      ],
      "payable": false,
      "stateMutability": "view",
      "type": "function"
    },
    {
      "constant": true,
      "inputs": [
        {
          "name": "",
          "type": "address"
        }
      ],
      "name": "voters",
      "outputs": [
        {
          "name": "firstName",
          "type": "string"
        },
        {
          "name": "lastName",
          "type": "string"
        },
        {
          "name": "age",
          "type": "uint256"
        },
        {
          "name": "choice",
          "type": "uint8"
        },
        {
          "name": "useraddress",
          "type": "address"
        }
      ],
      "payable": false,
      "stateMutability": "view",
      "type": "function"
    },
    {
      "constant": false,
      "inputs": [
        {
          "name": "_firstName",
          "type": "string"
        },
        {
          "name": "_lastName",
          "type": "string"
        },
        {
          "name": "_age",
          "type": "uint256"
        },
        {
          "name": "_gender",
          "type": "string"
        },
        {
          "name": "_useraddress",
          "type": "address"
        }
      ],
      "name": "addVoter",
      "outputs": [
        {
          "name": "",
          "type": "bool"
        }
      ],
      "payable": false,
      "stateMutability": "nonpayable",
      "type": "function"
    }
  ],
  "bytecode": "0x608060405234801561001057600080fd5b50610968806100206000396000f3fe608060405234801561001057600080fd5b50600436106100415760003560e01c806342169e481461004657806351bf957514610064578063a3ec138d1461028f575b600080fd5b61004e610407565b6040518082815260200191505060405180910390f35b610275600480360360a081101561007a57600080fd5b810190808035906020019064010000000081111561009757600080fd5b8201836020820111156100a957600080fd5b803590602001918460018302840111640100000000831117156100cb57600080fd5b91908080601f016020809104026020016040519081016040528093929190818152602001838380828437600081840152601f19601f8201169050808301925050505050505091929192908035906020019064010000000081111561012e57600080fd5b82018360208201111561014057600080fd5b8035906020019184600183028401116401000000008311171561016257600080fd5b91908080601f016020809104026020016040519081016040528093929190818152602001838380828437600081840152601f19601f82011690508083019250505050505050919291929080359060200190929190803590602001906401000000008111156101cf57600080fd5b8201836020820111156101e157600080fd5b8035906020019184600183028401116401000000008311171561020357600080fd5b91908080601f016020809104026020016040519081016040528093929190818152602001838380828437600081840152601f19601f820116905080830192505050505050509192919290803573ffffffffffffffffffffffffffffffffffffffff16906020019092919050505061040d565b604051808215151515815260200191505060405180910390f35b6102d1600480360360208110156102a557600080fd5b81019080803573ffffffffffffffffffffffffffffffffffffffff169060200190929190505050610704565b6040518080602001806020018681526020018560028111156102ef57fe5b60ff1681526020018473ffffffffffffffffffffffffffffffffffffffff1673ffffffffffffffffffffffffffffffffffffffff168152602001838103835288818151815260200191508051906020019080838360005b83811015610361578082015181840152602081019050610346565b50505050905090810190601f16801561038e5780820380516001836020036101000a031916815260200191505b50838103825287818151815260200191508051906020019080838360005b838110156103c75780820151818401526020810190506103ac565b50505050905090810190601f1680156103f45780820380516001836020036101000a031916815260200191505b5097505050505050505060405180910390f35b60005481565b60008060008154809291906001019190505550600060405160200180807f4d616c6500000000000000000000000000000000000000000000000000000000815250600401905060405160208183030381529060405280519060200120846040516020018082805190602001908083835b602083106104a0578051825260208201915060208101905060208303925061047d565b6001836020036101000a0380198251168184511680821785525050505050509050019150506040516020818303038152906040528051906020012014156104ea57600090506105b8565b60405160200180807f46656d616c650000000000000000000000000000000000000000000000000000815250600601905060405160208183030381529060405280519060200120846040516020018082805190602001908083835b602083106105685780518252602082019150602081019050602083039250610545565b6001836020036101000a0380198251168184511680821785525050505050509050019150506040516020818303038152906040528051906020012014156105b257600190506105b7565b600290505b5b6040518060a001604052808881526020018781526020018681526020018260028111156105e157fe5b81526020018473ffffffffffffffffffffffffffffffffffffffff16815250600160008573ffffffffffffffffffffffffffffffffffffffff1673ffffffffffffffffffffffffffffffffffffffff168152602001908152602001600020600082015181600001908051906020019061065b929190610897565b506020820151816001019080519060200190610678929190610897565b506040820151816002015560608201518160030160006101000a81548160ff021916908360028111156106a757fe5b021790555060808201518160030160016101000a81548173ffffffffffffffffffffffffffffffffffffffff021916908373ffffffffffffffffffffffffffffffffffffffff160217905550905050600191505095945050505050565b6001602052806000526040600020600091509050806000018054600181600116156101000203166002900480601f0160208091040260200160405190810160405280929190818152602001828054600181600116156101000203166002900480156107b05780601f10610785576101008083540402835291602001916107b0565b820191906000526020600020905b81548152906001019060200180831161079357829003601f168201915b505050505090806001018054600181600116156101000203166002900480601f01602080910402602001604051908101604052809291908181526020018280546001816001161561010002031660029004801561084e5780601f106108235761010080835404028352916020019161084e565b820191906000526020600020905b81548152906001019060200180831161083157829003601f168201915b5050505050908060020154908060030160009054906101000a900460ff16908060030160019054906101000a900473ffffffffffffffffffffffffffffffffffffffff16905085565b828054600181600116156101000203166002900490600052602060002090601f016020900481019282601f106108d857805160ff1916838001178555610906565b82800160010185558215610906579182015b828111156109055782518255916020019190600101906108ea565b5b5090506109139190610917565b5090565b61093991905b8082111561093557600081600090555060010161091d565b5090565b9056fea165627a7a72305820230fc5d0f1c745c3e2ac1dfa497a206d0b64c01a45a371ecc01673709b5ea1940029",
  "source": "pragma solidity ^0.5.8;\n\ncontract Registration {\n    //in Solidity there is no way to determine size of mapping or iterate over mapping because in the mapping any key that we haven't set a value for will automatically return a default value.\n    //Therefore I have added a count of the number of Voters 'registered'\n    uint public voterCount;\n    enum Gender {Male, Female, Other}\n\n    struct Voter {\n        string firstName;\n        string lastName;\n        uint age;\n        Gender choice;\n        address useraddress;\n    }\n\n    mapping(address => Voter) public voters;\n\n    //pre-approved voters are inputted and added onto the list of valid voters.\n    //the users address is used as their unique id this will allow registered voters to take part in polls later.\n    function addVoter(string memory _firstName, string memory _lastName, uint _age, string memory _gender, address _useraddress)\n    public returns (bool) {\n        voterCount ++;\n        Gender genderChoice;\n\n        if (keccak256(abi.encodePacked(_gender)) == keccak256(abi.encodePacked(\"Male\"))) {\n            genderChoice = Gender.Male;\n        }\n        else if (keccak256(abi.encodePacked(_gender)) == keccak256(abi.encodePacked(\"Female\"))) {\n            genderChoice = Gender.Female;\n        }\n        else{\n            genderChoice = Gender.Other;\n        }\n\n        //reference mapping and pass key which in this case is the address. The value assigned to the key is a new voter in the Voter structure type\n        voters[_useraddress] = Voter(_firstName, _lastName, _age, genderChoice, _useraddress);\n        return(true);\n    }\n\n}\n",
  "sourcePath": "/Users/emilyrussell/Documents/SummerProject/project-voting/contracts/Registration.sol",
  "compiler": {
    "name": "solc",
    "version": "0.5.8+commit.23d335f2.Emscripten.clang"
  },
  "schemaVersion": "3.0.11",
  "updatedAt": "2019-08-28T12:58:22.671Z",
  "devdoc": {
    "methods": {}
  },
  "userdoc": {
    "methods": {}
  }
}