{
  "contractName": "Registration",
  "abi": [
    {
      "constant": true,
      "inputs": [],
      "name": "voterCount",
      "outputs": [
        {
          "name": "",
          "type": "uint256"
        }
      ],
      "payable": false,
      "stateMutability": "view",
      "type": "function"
    },
    {
      "constant": true,
      "inputs": [
        {
          "name": "",
          "type": "address"
        }
      ],
      "name": "voters",
      "outputs": [
        {
          "name": "firstName",
          "type": "string"
        },
        {
          "name": "lastName",
          "type": "string"
        },
        {
          "name": "age",
          "type": "uint256"
        },
        {
          "name": "gender",
          "type": "string"
        },
        {
          "name": "useraddress",
          "type": "address"
        }
      ],
      "payable": false,
      "stateMutability": "view",
      "type": "function"
    },
    {
      "constant": false,
      "inputs": [
        {
          "name": "_firstName",
          "type": "string"
        },
        {
          "name": "_lastName",
          "type": "string"
        },
        {
          "name": "_age",
          "type": "uint256"
        },
        {
          "name": "_gender",
          "type": "string"
        },
        {
          "name": "_useraddress",
          "type": "address"
        }
      ],
      "name": "addVoter",
      "outputs": [
        {
          "name": "",
          "type": "bool"
        }
      ],
      "payable": false,
      "stateMutability": "nonpayable",
      "type": "function"
    }
  ],
  "bytecode": "0x608060405234801561001057600080fd5b5061089a806100206000396000f3fe608060405234801561001057600080fd5b50600436106100415760003560e01c806342169e481461004657806351bf957514610064578063a3ec138d1461028f575b600080fd5b61004e61045e565b6040518082815260200191505060405180910390f35b610275600480360360a081101561007a57600080fd5b810190808035906020019064010000000081111561009757600080fd5b8201836020820111156100a957600080fd5b803590602001918460018302840111640100000000831117156100cb57600080fd5b91908080601f016020809104026020016040519081016040528093929190818152602001838380828437600081840152601f19601f8201169050808301925050505050505091929192908035906020019064010000000081111561012e57600080fd5b82018360208201111561014057600080fd5b8035906020019184600183028401116401000000008311171561016257600080fd5b91908080601f016020809104026020016040519081016040528093929190818152602001838380828437600081840152601f19601f82011690508083019250505050505050919291929080359060200190929190803590602001906401000000008111156101cf57600080fd5b8201836020820111156101e157600080fd5b8035906020019184600183028401116401000000008311171561020357600080fd5b91908080601f016020809104026020016040519081016040528093929190818152602001838380828437600081840152601f19601f820116905080830192505050505050509192919290803573ffffffffffffffffffffffffffffffffffffffff169060200190929190505050610464565b604051808215151515815260200191505060405180910390f35b6102d1600480360360208110156102a557600080fd5b81019080803573ffffffffffffffffffffffffffffffffffffffff1690602001909291905050506105ab565b604051808060200180602001868152602001806020018573ffffffffffffffffffffffffffffffffffffffff1673ffffffffffffffffffffffffffffffffffffffff168152602001848103845289818151815260200191508051906020019080838360005b83811015610351578082015181840152602081019050610336565b50505050905090810190601f16801561037e5780820380516001836020036101000a031916815260200191505b50848103835288818151815260200191508051906020019080838360005b838110156103b757808201518184015260208101905061039c565b50505050905090810190601f1680156103e45780820380516001836020036101000a031916815260200191505b50848103825286818151815260200191508051906020019080838360005b8381101561041d578082015181840152602081019050610402565b50505050905090810190601f16801561044a5780820380516001836020036101000a031916815260200191505b509850505050505050505060405180910390f35b60005481565b600080600081548092919060010191905055506040518060a001604052808781526020018681526020018581526020018481526020018373ffffffffffffffffffffffffffffffffffffffff16815250600160008473ffffffffffffffffffffffffffffffffffffffff1673ffffffffffffffffffffffffffffffffffffffff168152602001908152602001600020600082015181600001908051906020019061050f9291906107c9565b50602082015181600101908051906020019061052c9291906107c9565b506040820151816002015560608201518160030190805190602001906105539291906107c9565b5060808201518160040160006101000a81548173ffffffffffffffffffffffffffffffffffffffff021916908373ffffffffffffffffffffffffffffffffffffffff1602179055509050506001905095945050505050565b6001602052806000526040600020600091509050806000018054600181600116156101000203166002900480601f0160208091040260200160405190810160405280929190818152602001828054600181600116156101000203166002900480156106575780601f1061062c57610100808354040283529160200191610657565b820191906000526020600020905b81548152906001019060200180831161063a57829003601f168201915b505050505090806001018054600181600116156101000203166002900480601f0160208091040260200160405190810160405280929190818152602001828054600181600116156101000203166002900480156106f55780601f106106ca576101008083540402835291602001916106f5565b820191906000526020600020905b8154815290600101906020018083116106d857829003601f168201915b505050505090806002015490806003018054600181600116156101000203166002900480601f0160208091040260200160405190810160405280929190818152602001828054600181600116156101000203166002900480156107995780601f1061076e57610100808354040283529160200191610799565b820191906000526020600020905b81548152906001019060200180831161077c57829003601f168201915b5050505050908060040160009054906101000a900473ffffffffffffffffffffffffffffffffffffffff16905085565b828054600181600116156101000203166002900490600052602060002090601f016020900481019282601f1061080a57805160ff1916838001178555610838565b82800160010185558215610838579182015b8281111561083757825182559160200191906001019061081c565b5b5090506108459190610849565b5090565b61086b91905b8082111561086757600081600090555060010161084f565b5090565b9056fea165627a7a7230582091358e64ef74711928e600692cafb27385378d7a3c5db95189751f2c86fecb8f0029",
  "source": "pragma solidity ^0.5.8;\n\ncontract Registration {\n    //in Solidity there is no way to determine size of mapping or iterate over mapping because in the mapping any key that we haven't set a value for will automatically return a default value.\n    //Therefore I have added a count of the number of Voters 'registered'\n    uint public voterCount;\n\n    struct Voter {\n        string firstName;\n        string lastName;\n        uint age;\n        string gender;\n        address useraddress;\n    }\n\n    mapping(address => Voter) public voters;\n\n    //pre-approved voters are inputted and added onto the list of valid voters.\n    //the users address is used as their unique id this will allow registered voters to take part in polls later.\n    function addVoter(string memory _firstName, string memory _lastName, uint _age, string memory _gender, address _useraddress)\n    public returns (bool) {\n        voterCount ++;\n\n        //reference mapping and pass key which in this case is the address. The value assigned to the key is a new voter in the Voter structure type\n        voters[_useraddress] = Voter(_firstName, _lastName, _age, _gender, _useraddress);\n        return(true);\n    }\n\n}\n",
  "sourcePath": "/Users/emilyrussell/Documents/SummerProject/project-voting/contracts/Registration.sol",
  "compiler": {
    "name": "solc",
    "version": "0.5.8+commit.23d335f2.Emscripten.clang"
  },
  "schemaVersion": "3.0.11",
  "updatedAt": "2019-08-27T13:08:25.925Z",
  "devdoc": {
    "methods": {}
  },
  "userdoc": {
    "methods": {}
  }
}