{
  "contractName": "Registration",
  "abi": [
    {
      "constant": true,
      "inputs": [
        {
          "name": "",
          "type": "address"
        }
      ],
      "name": "voters",
      "outputs": [
        {
          "name": "firstName",
          "type": "string"
        },
        {
          "name": "lastName",
          "type": "string"
        },
        {
          "name": "age",
          "type": "uint256"
        },
        {
          "name": "gender",
          "type": "string"
        },
        {
          "name": "useraddress",
          "type": "address"
        }
      ],
      "payable": false,
      "stateMutability": "view",
      "type": "function"
    },
    {
      "constant": false,
      "inputs": [
        {
          "name": "_firstName",
          "type": "string"
        },
        {
          "name": "_lastName",
          "type": "string"
        },
        {
          "name": "_age",
          "type": "uint256"
        },
        {
          "name": "_gender",
          "type": "string"
        },
        {
          "name": "_useraddress",
          "type": "address"
        }
      ],
      "name": "addVoter",
      "outputs": [
        {
          "name": "",
          "type": "bool"
        }
      ],
      "payable": false,
      "stateMutability": "nonpayable",
      "type": "function"
    }
  ],
  "bytecode": "0x608060405234801561001057600080fd5b5061086b806100206000396000f3fe608060405234801561001057600080fd5b50600436106100365760003560e01c806351bf95751461003b578063a3ec138d14610266575b600080fd5b61024c600480360360a081101561005157600080fd5b810190808035906020019064010000000081111561006e57600080fd5b82018360208201111561008057600080fd5b803590602001918460018302840111640100000000831117156100a257600080fd5b91908080601f016020809104026020016040519081016040528093929190818152602001838380828437600081840152601f19601f8201169050808301925050505050505091929192908035906020019064010000000081111561010557600080fd5b82018360208201111561011757600080fd5b8035906020019184600183028401116401000000008311171561013957600080fd5b91908080601f016020809104026020016040519081016040528093929190818152602001838380828437600081840152601f19601f82011690508083019250505050505050919291929080359060200190929190803590602001906401000000008111156101a657600080fd5b8201836020820111156101b857600080fd5b803590602001918460018302840111640100000000831117156101da57600080fd5b91908080601f016020809104026020016040519081016040528093929190818152602001838380828437600081840152601f19601f820116905080830192505050505050509192919290803573ffffffffffffffffffffffffffffffffffffffff169060200190929190505050610435565b604051808215151515815260200191505060405180910390f35b6102a86004803603602081101561027c57600080fd5b81019080803573ffffffffffffffffffffffffffffffffffffffff16906020019092919050505061057c565b604051808060200180602001868152602001806020018573ffffffffffffffffffffffffffffffffffffffff1673ffffffffffffffffffffffffffffffffffffffff168152602001848103845289818151815260200191508051906020019080838360005b8381101561032857808201518184015260208101905061030d565b50505050905090810190601f1680156103555780820380516001836020036101000a031916815260200191505b50848103835288818151815260200191508051906020019080838360005b8381101561038e578082015181840152602081019050610373565b50505050905090810190601f1680156103bb5780820380516001836020036101000a031916815260200191505b50848103825286818151815260200191508051906020019080838360005b838110156103f45780820151818401526020810190506103d9565b50505050905090810190601f1680156104215780820380516001836020036101000a031916815260200191505b509850505050505050505060405180910390f35b600080600081548092919060010191905055506040518060a001604052808781526020018681526020018581526020018481526020018373ffffffffffffffffffffffffffffffffffffffff16815250600160008473ffffffffffffffffffffffffffffffffffffffff1673ffffffffffffffffffffffffffffffffffffffff16815260200190815260200160002060008201518160000190805190602001906104e092919061079a565b5060208201518160010190805190602001906104fd92919061079a565b5060408201518160020155606082015181600301908051906020019061052492919061079a565b5060808201518160040160006101000a81548173ffffffffffffffffffffffffffffffffffffffff021916908373ffffffffffffffffffffffffffffffffffffffff1602179055509050506001905095945050505050565b6001602052806000526040600020600091509050806000018054600181600116156101000203166002900480601f0160208091040260200160405190810160405280929190818152602001828054600181600116156101000203166002900480156106285780601f106105fd57610100808354040283529160200191610628565b820191906000526020600020905b81548152906001019060200180831161060b57829003601f168201915b505050505090806001018054600181600116156101000203166002900480601f0160208091040260200160405190810160405280929190818152602001828054600181600116156101000203166002900480156106c65780601f1061069b576101008083540402835291602001916106c6565b820191906000526020600020905b8154815290600101906020018083116106a957829003601f168201915b505050505090806002015490806003018054600181600116156101000203166002900480601f01602080910402602001604051908101604052809291908181526020018280546001816001161561010002031660029004801561076a5780601f1061073f5761010080835404028352916020019161076a565b820191906000526020600020905b81548152906001019060200180831161074d57829003601f168201915b5050505050908060040160009054906101000a900473ffffffffffffffffffffffffffffffffffffffff16905085565b828054600181600116156101000203166002900490600052602060002090601f016020900481019282601f106107db57805160ff1916838001178555610809565b82800160010185558215610809579182015b828111156108085782518255916020019190600101906107ed565b5b509050610816919061081a565b5090565b61083c91905b80821115610838576000816000905550600101610820565b5090565b9056fea165627a7a72305820741da25eb50258f7c90f7447db1df15be081c8175567005418d95672b6f3809e0029",
  "source": "pragma solidity ^0.5.8;\n\ncontract Registration {\n    //in Solidity there is no way to determine size of mapping or iterate over mapping because in the mapping any key that we haven't set a value for will automatically return a default value.\n    //Therefore I have added a count of the number of Voters 'registered'\n    uint voterCount;\n\n    struct Voter {\n        string firstName;\n        string lastName;\n        uint age;\n        string gender;\n        address useraddress;\n    }\n\n    mapping(address => Voter) public voters;\n\n    //pre-approved voters are inputted and added onto the list of valid voters.\n    //the users address is used as their unique id this will allow registered voters to take part in polls later.\n    function addVoter(string memory _firstName, string memory _lastName, uint _age, string memory _gender, address _useraddress)\n    public returns (bool) {\n        voterCount ++;\n\n        //reference mapping and pass key which in this case is the address. The value assigned to the key is a new voter in the Voter structure type\n        voters[_useraddress] = Voter(_firstName, _lastName, _age, _gender, _useraddress);\n        return(true);\n    }\n\n}\n",
  "sourcePath": "/Users/emilyrussell/Documents/SummerProject/project-voting/contracts/Registration.sol",
  "compiler": {
    "name": "solc",
    "version": "0.5.8+commit.23d335f2.Emscripten.clang"
  },
  "schemaVersion": "3.0.11",
  "updatedAt": "2019-08-26T12:03:05.583Z",
  "devdoc": {
    "methods": {}
  },
  "userdoc": {
    "methods": {}
  }
}