{
  "contractName": "People",
  "abi": [
    {
      "constant": true,
      "inputs": [
        {
          "name": "",
          "type": "uint256"
        }
      ],
      "name": "people",
      "outputs": [
        {
          "name": "firstName",
          "type": "string"
        },
        {
          "name": "lastName",
          "type": "string"
        },
        {
          "name": "age",
          "type": "uint256"
        }
      ],
      "payable": false,
      "stateMutability": "view",
      "type": "function"
    },
    {
      "constant": false,
      "inputs": [
        {
          "name": "_firstName",
          "type": "string"
        },
        {
          "name": "_lastName",
          "type": "string"
        },
        {
          "name": "_age",
          "type": "uint256"
        }
      ],
      "name": "addPerson",
      "outputs": [
        {
          "name": "success",
          "type": "bool"
        }
      ],
      "payable": false,
      "stateMutability": "nonpayable",
      "type": "function"
    },
    {
      "constant": true,
      "inputs": [],
      "name": "getPeople",
      "outputs": [
        {
          "name": "",
          "type": "string[]"
        },
        {
          "name": "",
          "type": "string[]"
        },
        {
          "name": "",
          "type": "uint256[]"
        }
      ],
      "payable": false,
      "stateMutability": "view",
      "type": "function"
    }
  ],
  "bytecode": "0x608060405234801561001057600080fd5b50610b5e806100206000396000f3fe608060405234801561001057600080fd5b50600436106100415760003560e01c80634847e01b146100465780634f995d08146100765780639e7a13ad14610096575b600080fd5b610060600480360361005b91908101906106c0565b6100c8565b60405161006d9190610952565b60405180910390f35b61007e61016f565b60405161008d93929190610906565b60405180910390f35b6100b060048036036100ab919081019061073f565b61042a565b6040516100bf9392919061096d565b60405180910390f35b60006100d2610591565b848160000181905250838160200181905250828160400181815250506000819080600181540180825580915050906001820390600052602060002090600302016000909192909190915060008201518160000190805190602001906101389291906105b2565b5060208201518160010190805190602001906101559291906105b2565b506040820151816002015550505060019150509392505050565b60608060606000808054905090506060816040519080825280602002602001820160405280156101b357816020015b606081526020019060019003908161019e5790505b5090506060826040519080825280602002602001820160405280156101ec57816020015b60608152602001906001900390816101d75790505b5090506060836040519080825280602002602001820160405280156102205781602001602082028038833980820191505090505b50905060008090505b6000805490508110156104175761023e610591565b6000828154811061024b57fe5b9060005260206000209060030201604051806060016040529081600082018054600181600116156101000203166002900480601f0160208091040260200160405190810160405280929190818152602001828054600181600116156101000203166002900480156102fd5780601f106102d2576101008083540402835291602001916102fd565b820191906000526020600020905b8154815290600101906020018083116102e057829003601f168201915b50505050508152602001600182018054600181600116156101000203166002900480601f01602080910402602001604051908101604052809291908181526020018280546001816001161561010002031660029004801561039f5780601f106103745761010080835404028352916020019161039f565b820191906000526020600020905b81548152906001019060200180831161038257829003601f168201915b50505050508152602001600282015481525050905080600001518583815181106103c557fe5b602002602001018190525080602001518483815181106103e157fe5b602002602001018190525080604001518383815181106103fd57fe5b602002602001018181525050508080600101915050610229565b5082828296509650965050505050909192565b6000818154811061043757fe5b9060005260206000209060030201600091509050806000018054600181600116156101000203166002900480601f0160208091040260200160405190810160405280929190818152602001828054600181600116156101000203166002900480156104e35780601f106104b8576101008083540402835291602001916104e3565b820191906000526020600020905b8154815290600101906020018083116104c657829003601f168201915b505050505090806001018054600181600116156101000203166002900480601f0160208091040260200160405190810160405280929190818152602001828054600181600116156101000203166002900480156105815780601f1061055657610100808354040283529160200191610581565b820191906000526020600020905b81548152906001019060200180831161056457829003601f168201915b5050505050908060020154905083565b60405180606001604052806060815260200160608152602001600081525090565b828054600181600116156101000203166002900490600052602060002090601f016020900481019282601f106105f357805160ff1916838001178555610621565b82800160010185558215610621579182015b82811115610620578251825591602001919060010190610605565b5b50905061062e9190610632565b5090565b61065491905b80821115610650576000816000905550600101610638565b5090565b90565b600082601f83011261066857600080fd5b813561067b610676826109df565b6109b2565b9150808252602083016020830185838301111561069757600080fd5b6106a2838284610aba565b50505092915050565b6000813590506106ba81610b0d565b92915050565b6000806000606084860312156106d557600080fd5b600084013567ffffffffffffffff8111156106ef57600080fd5b6106fb86828701610657565b935050602084013567ffffffffffffffff81111561071857600080fd5b61072486828701610657565b9250506040610735868287016106ab565b9150509250925092565b60006020828403121561075157600080fd5b600061075f848285016106ab565b91505092915050565b60006107748383610876565b905092915050565b600061078883836108e8565b60208301905092915050565b600061079f82610a25565b6107a98185610a60565b9350836020820285016107bb85610a0b565b8060005b858110156107f757848403895281516107d88582610768565b94506107e383610a46565b925060208a019950506001810190506107bf565b50829750879550505050505092915050565b600061081482610a30565b61081e8185610a71565b935061082983610a18565b8060005b8381101561085a578151610841888261077c565b975061084c83610a53565b92505060018101905061082d565b5085935050505092915050565b61087081610aa4565b82525050565b600061088182610a3b565b61088b8185610a82565b935061089b818560208601610ac9565b6108a481610afc565b840191505092915050565b60006108ba82610a3b565b6108c48185610a93565b93506108d4818560208601610ac9565b6108dd81610afc565b840191505092915050565b6108f181610ab0565b82525050565b61090081610ab0565b82525050565b600060608201905081810360008301526109208186610794565b905081810360208301526109348185610794565b905081810360408301526109488184610809565b9050949350505050565b60006020820190506109676000830184610867565b92915050565b6000606082019050818103600083015261098781866108af565b9050818103602083015261099b81856108af565b90506109aa60408301846108f7565b949350505050565b6000604051905081810181811067ffffffffffffffff821117156109d557600080fd5b8060405250919050565b600067ffffffffffffffff8211156109f657600080fd5b601f19601f8301169050602081019050919050565b6000602082019050919050565b6000602082019050919050565b600081519050919050565b600081519050919050565b600081519050919050565b6000602082019050919050565b6000602082019050919050565b600082825260208201905092915050565b600082825260208201905092915050565b600082825260208201905092915050565b600082825260208201905092915050565b60008115159050919050565b6000819050919050565b82818337600083830152505050565b60005b83811015610ae7578082015181840152602081019050610acc565b83811115610af6576000848401525b50505050565b6000601f19601f8301169050919050565b610b1681610ab0565b8114610b2157600080fd5b5056fea265627a7a723058203df9d21d530bb0f4c9b26c7cd5a6b7af3f1003d2b7b614408a3acb12b0a4957c6c6578706572696d656e74616cf50037",
  "source": "pragma experimental ABIEncoderV2;\n\ncontract People {\n\n    Person[] public people;\n\n    struct Person {\n        string firstName;\n        string lastName;\n        uint age;\n    }\n\n    function addPerson(string memory _firstName, string memory _lastName, uint _age) public returns (bool success) {\n\n        Person memory newPerson;\n        newPerson.firstName = _firstName;\n        newPerson.lastName = _lastName;\n        newPerson.age = _age;\n\n        people.push(newPerson);\n        return true;\n\n    }\n\n    function getPeople() public view returns (string[] memory, string[] memory, uint[] memory) {\n\n        uint length = people.length;\n\n        string[] memory firstNames = new string[](length);\n        string[] memory lastNames = new string[](length);\n        uint[] memory ages = new uint[](length);\n\n        for (uint i = 0; i < people.length; i++){\n            Person memory currentPerson;\n            currentPerson = people[i];\n\n            firstNames[i] = currentPerson.firstName;\n            lastNames[i] = currentPerson.lastName;\n            ages[i] = currentPerson.age;\n        }\n\n        return(firstNames, lastNames, ages);\n    }\n\n}",
  "sourcePath": "/Users/emilyrussell/Documents/Project_Lessons/first_smart_contract/contracts/People.sol",
  "compiler": {
    "name": "solc",
    "version": "0.5.8+commit.23d335f2.Emscripten.clang"
  },
  "schemaVersion": "3.0.11",
  "updatedAt": "2019-08-13T10:21:16.217Z",
  "devdoc": {
    "methods": {}
  },
  "userdoc": {
    "methods": {}
  }
}